:040000007AEF0AF099
:10060000002054696D6520202045762053700A0D26
:100610000053756363657366756C6C79203A2900C5
:10062000436C65617264206C6F67732000444F57A0
:100630004E4C4F4144204C4F470054494D45204EAD
:100640004F542053455400746865206C6F677320C5
:10065000617265006E6F204576656E7473212100AE
:10066000446F776E6C6F61646564004C6F677320D4
:100670006172652000434C454152204C4F47005465
:10068000696D652053657421005345542054494DCC
:10069000450056494557204C4F47007365745F74B9
:1006A000696D650054696D65002043004F4E00532D
:1006B0007000457600001C6A1D6A1E6A1A6A010EE7
:1006C000196E010E1B6E010E186E000E146E000ED8
:1006D000156E000E166E000E176E9B0E036E035005
:1006E000D8A4060E046E800E056E84EC09F0410E4F
:1006F000036E046AC00E056E84EC09F0E5D0010EAD
:1007000050EC0BF01F6E010E1426000E152216225F
:1007100017221750161006E1D10E145C070E15585B
:10072000D8A00FD0000E146E000E156E000E166EBF
:10073000000E176E1B50D8A402D0010E01D0000E7F
:100740001B6E020E1F18D8A4ABD0010E1A24016E26
:10075000026A000E0222000E046E030E036E19ECF4
:1007600009F001501A6E9CD01B50D8B415D0C00EA1
:10077000086E0A0E016E1C5019EC0BF0300FF5ECF0
:100780000BF0C10E086E0A0E016E1C5091EC0BF0BE
:10079000300FF5EC0BF00AD0C00E086E200EF5EC11
:1007A0000BF0C10E086E200EF5EC0BF01F04D8A460
:1007B00081D0010E1C24016E026A000E0222000E7E
:1007C000046E180E036E19EC09F001501C6E72D005
:1007D0001B50D8B415D0C30E086E0A0E016E1D5002
:1007E00019EC0BF0300FF5EC0BF0C40E086E0A0E8E
:1007F000016E1D5091EC0BF0300FF5EC0BF00AD0B0
:10080000C30E086E200EF5EC0BF0C40E086E200E21
:10081000F5EC0BF01F04D8A44DD0010E1D24016E81
:10082000026A000E0222000E046E3C0E036E19ECEA
:1008300009F001501D6E3ED01B50D8B415D0C60E25
:10084000086E0A0E016E1E5019EC0BF0300FF5EC1D
:100850000BF0C70E086E0A0E016E1E5091EC0BF0E5
:10086000300FF5EC0BF00AD0C60E086E200EF5EC3A
:100870000BF0C70E086E200EF5EC0BF01F04D8A489
:1008800019D0010E1E24016E026A000E0222000E13
:10089000046E3C0E036E19EC09F001501E6E0AD076
:1008A0001A50000AD8B460D7010AD8B491D7030A05
:1008B000D8B4C2D7050E1F18D8B405D0060E1F181D
:1008C000D8A402D0186A196A1950D8A418D7185099
:1008D000D8B45FD00A0E016E1E5091EC0BF00A6E78
:1008E0000A0E016E1E5019EC0BF00B6E0B38F00B5C
:1008F0000A107F0B056E000EC9EC0BF00A0E016E9C
:100900001D5091EC0BF00A6E0A0E016E1D5019EC91
:100910000BF00B6E0B38F00B0A10056E010EC9ECD4
:100920000BF00A0E016E1C5091EC0BF00A6E0A0ED1
:10093000016E1C5019EC0BF00B6E0B38F00B0A100B
:100940003F0B056E020EC9EC0BF07F0E036E0350D9
:10095000D8A4060E046E800E056E84EC09F0200EFD
:100960000C6EA10E0D6E070E0E6E000E0F6EFF0EBA
:100970000C26FF0E0D22FF0E0E22FF0E0F220C285A
:10098000F6E10D28F4E10E28F2E10F28D8B41200A8
:10099000EED7000E016E010EA5EC0BF03A0E036EC1
:1009A0000350D8A4060E046E800E056E84EC09F088
:1009B000200E106EA10E116E070E126E000E136E39
:1009C000FF0E1026FF0E1122FF0E1222FF0E132221
:1009D0001028F6E11128F4E11228F2E11328D8B426
:1009E0001200EED7040EFBEC0AF001C037F002C093
:1009F00038F037C001F038C002F0000E046E0A0E65
:100A0000036E0BEC0AF001C037F002C038F0A40E00
:100A1000036E0350D8A4060E046E810E056E84EC9E
:100A200009F0B20E036E0350D8A4060E046E890EB0
:100A3000056E84EC09F0AF0E036E0350D8A4060EC9
:100A4000046E8D0E056E84EC09F050EC09F0C90EB1
:100A5000086E470EF5EC0BF05C50D8B40BD0AC0E22
:100A6000036E0350D8A4060E046EC90E056E84EC06
:100A700009F009D0CA0E086E3C504A0FD96EDA6AE6
:100A8000DF50F5EC0BF0385024E1640E375CD8B041
:100A900020D0CD0E086E37C001F038C002F0000E35
:100AA000046E0A0E036E0BEC0AF00150300FF5ECE9
:100AB0000BF0CE0E086E37C001F038C002F0000E09
:100AC000046E0A0E036E9BEC0AF00150300FF5EC39
:100AD0000BF03F04D8A429D05C6A070E3C6001D01B
:100AE0003C2A0A0E40600FD0410E086E3C504A0F5F
:100AF000D96EDA6ADF50096E37C00AF038C00BF0E1
:100B0000BCEC0AF01200B4EC09F0410E086E3C5047
:100B10004A0FD96EDA6ADF50096E37C00AF038C062
:100B20000BF0BCEC0AF040061200020E3F18D8A4ED
:100B300006D05C6A3C50D8B4D4D73C06D2D7030E5A
:100B40003F18D8A41200A90E036E0350D8A4060EB5
:100B5000046EC90E056E84EC09F0400E116E0D0E88
:100B6000126E030E136E000E146EFF0E1126FF0E92
:100B70001222FF0E1322FF0E14221128F6E1122872
:100B8000F4E11328F2E11428D8A4EFD70A0E40604C
:100B90000BD0410E086E430E096E37C00AF038C004
:100BA0000BF0BCEC0AF01200B4EC09F0410E086E38
:100BB000430E096E37C00AF038C00BF0BCEC0AF0E7
:100BC000B2D7056AE2D0D8EC0BF00550130D000E39
:100BD000F324D96E010EF420DA6E28C0DFFF055031
:100BE000130D010EF324D96E010EF420DA6E29C024
:100BF000DFFF0550130D020EF324D96E010EF42011
:100C0000DA6E2AC0DFFF0550130D030EF324D96EF0
:100C1000010EF420DA6E2BC0DFFF0550130D040E19
:100C2000F324D96E010EF420DA6E2CC0DFFF0550DC
:100C3000130D050EF324D96E010EF420DA6E2DC0CB
:100C4000DFFF0550130D060EF324D96E010EF420BC
:100C5000DA6E2EC0DFFF0550130D070EF324D96E98
:100C6000010EF420DA6E2FC0DFFF0550130D080EC1
:100C7000F324D96E010EF420DA6E200EDF6E0550DB
:100C8000130D090EF324D96E010EF420DA6E200E36
:100C9000DF6E430E3018D8A40AD00550130D0A0E8B
:100CA000F324D96E010EF420DA6E200E09D005501F
:100CB000130D0A0EF324D96E010EF420DA6E470EDE
:100CC000DF6E0550130D0B0EF324D96E010EF420C8
:100CD000DA6E30C0DFFF0550130D0B0EF324D96E12
:100CE000010EF420DA6E30C0DFFF0550130D0C0E3C
:100CF000F324D96E010EF420DA6E200EDF6E05505B
:100D0000130D0D0EF324D96E010EF420DA6E200EB1
:100D1000DF6E0550130D0E0EF324D96E010EF42074
:100D2000DA6E0A0E016E315019EC0BF0300FDF6EE7
:100D30000550130D0F0EF324D96E010EF420DA6E58
:100D40000A0E016E315091EC0BF0300FDF6E055042
:100D5000130D100EF324D96E010EF420DA6E0A0E74
:100D6000DF6E0550130D110EF324D96E010EF42021
:100D7000DA6E0D0EDF6E0550130D120EF324D96ED0
:100D8000010EF420DA6EDF6A052A4050055CD8B007
:100D9000120019D75A50D8B441D03E6A3B50D8A45B
:100DA00005D0800E086E2A0EF5EC0BF0020E3F18EF
:100DB000D8A41BD0030E3B6009D0000E016E010EBB
:100DC000A5EC0BF03B2A3B04D8A43A2A3B50D8A40C
:100DD00006D0800E086E2A0EF5EC0BF01BD0C00E6C
:100DE000086E2A0EF5EC0BF015D03F04D8A412D0F3
:100DF0003B50D8B40FD0000E016E010EA5EC0BF0E5
:100E00003B06020E3B18D8A43A06800E086E2A0E46
:100E1000F5EC0BF03A5058EC0AF090D05B6A81D0B8
:100E2000A9EC07F08BD06B0E036E0350D8A4060E0E
:100E3000046E800E056E84EC09F0600E036E0350A4
:100E4000D8A4060E046EC00E056E84EC09F0DCEC2E
:100E50000AF0400E206E0D0E216E030E226E000E63
:100E6000236E2006000E215A225A235A2028F9E127
:100E70002128F7E12228F5E12328D8A4F2D7000E93
:100E8000016E010EA5EC0BF03B6A3A6A010E5A6E38
:100E900055D0406A000E366E000E356E200E036E81
:100EA0000350D8A4060E046E800E056E84EC09F083
:100EB000110E036E0350D8A4060E046EC00E056E0C
:100EC00084EC09F0200E246EA10E256E070E266E0E
:100ED000000E276EFF0E2426FF0E2522FF0E26226F
:100EE000FF0E27222428F6E12528F4E12628F2E146
:100EF0002728D8A4EFD7000E016E010EA5EC0BF049
:100F0000010E5B6E010E5A6E3B6A3A6A17D05BECBB
:100F100003F0000E016E010EA5EC0BF0010E5B6EEE
:100F2000B3D73B50000AD8B47BD7010AD8B47BD7DB
:100F3000030AD8B4AED7010AD8B4E9D7050E3F18D2
:100F4000D8A41200000E016E010EA5EC0BF05A6A37
:100F500012004050D8B497D05D50D8B403D05D6A29
:100F6000D8EC0BF0800E086E3E50300FF5EC0BF015
:100F7000470E036E0350D8A4060E046E820E056E53
:100F800084EC09F0C20E086E2850F5EC0BF0C30E8D
:100F9000086E2950F5EC0BF0C40E086E2A50F5ECE3
:100FA0000BF0C50E086E2B50F5EC0BF0C60E086E5C
:100FB0002C50F5EC0BF0C70E086E2D50F5EC0BF035
:100FC000C80E086E2E50F5EC0BF0C90E086E2F50AF
:100FD000F5EC0BF0430E3018D8B406D0CB0E086EEB
:100FE000470EF5EC0BF005D0CB0E086E200EF5EC9D
:100FF0000BF0CC0E086E3050F5EC0BF0CE0E086EF8
:101000000A0E016E315019EC0BF0300FF5EC0BF0BD
:10101000CF0E086E0A0E016E315091EC0BF0300FBE
:10102000F5EC0BF0020E3F18D8A41CD0FF0E4024A4
:101030000A6E0B6AFF0E0B223E500C6E0D6A0A50B0
:101040000C5C0D50800A0E6E0B50800A0E58D8B002
:1010500012003E2AD8EC0BF0000E016E010EA5EC3A
:101060000BF012003F04D8A412003E50D8B4120076
:10107000140E3D5E3E06D8EC0BF0000E016E010E24
:10108000A5EC0BF01200540E036E0350D8A4060E0C
:10109000046EC00E056E84EC09F01200956A94503F
:1010A000F80B946E8290C30E036ECD0EE82EFED721
:1010B000032EFCD70000000E016E330EA5EC0BF0E2
:1010C0001B0E036E9E0EE82EFED7032EFCD700D01B
:1010D000000E016E330EA5EC0BF0A60EE82EFED727
:1010E00000D0000E016E330EA5EC0BF000D000D046
:1010F0000000000E016E020EA5EC0BF0A60EE82E0D
:10110000FED700D0000E016E380EA5EC0BF0A60E37
:10111000E82EFED700D0000E016E010EA5EC0BF0FC
:10112000040E036E3E0EE82EFED7032EFCD7000EF3
:10113000016E0C0EA5EC0BF0A60EE82EFED700D02B
:10114000120001EC0CF0010E50EC0BF03F6E595008
:10115000D8B403D0F2EC04F002D0CAEC06F0050ECD
:101160003F18D8A406D0000E016E010EA5EC0BF0BE
:10117000596A060E3F18D8A40BD05B50D8B408D0DB
:10118000000E016E010EA5EC0BF0010E596EDBD7BF
:10119000060E3F18D8A4D7D75B50D8A4D4D7000EDA
:1011A000016E010EA5EC0BF0010E5A6E3B6A3A6A15
:1011B000010E5B6E3D6A010E5D6EC5D7819A818C12
:1011C000818E81B202D0010E120081B402D0040ED1
:1011D000120081B602D0070E120081B802D00A0EAA
:1011E0001200818A819C818E81B202D0020E12008F
:1011F00081B402D0050E120081B602D0080E120092
:1012000081B802D00B0E1200818A819E818C81B23E
:1012100002D0030E120081B402D0060E120081B675
:1012200002D0090E120081B802D00C0E1200FF0E7F
:101230001200066A02AE06D0016C021ED8B0022A65
:10124000010E066E04AE04D0036C041ED8B0042A4E
:1012500003500410D8B418D0010E056E04D0D890F5
:1012600003360436052A04AEFAD70350015C045055
:101270000258D8A004D00350015E0450025AD890FE
:1012800004320332052EF1D70650D8B404D0016CD5
:10129000021ED8B0022A01C001F002C002F0120002
:1012A000020E67EC0BF0326E010E67EC0BF0336E42
:1012B000000E67EC0BF0346E32380F0B030B300F5F
:1012C000416E32500F0B300F426E3A0E436E333880
:1012D0000F0B0F0B300F446E33500F0B300F456E5A
:1012E0003A0E466E34380F0B0F0B300F476E3450EA
:1012F0000F0B300F486E496A410E036E046AC00E30
:10130000056E84EC09F01200000E016E0550A5EC8C
:101310000BF016D0010E016E03C0F6FF04C0F7FFFC
:10132000F86A050EF76403D00800F55005D0F6CF33
:10133000D9FFF7CFDAFFDF50A5EC0BF0034A042A00
:1013400003C0F6FF04C0F7FFF86A050EF76403D088
:101350000800F55005D0F6CFD9FFF7CFDAFFDF5000
:101360000009D8B41200D6D7000E106E000E0F6E12
:101370000D6A10D00E6A0F500A0F7CEC0BF0046E51
:101380000F5035EC0BF00F4A102A0E2A090E0E648E
:10139000F2D70D2AFF0E4024086E096AFF0E0922BB
:1013A0000D500A6E0B6A08500A5C0B50800A0C6ED6
:1013B0000950800A0C58D8A0DDD70FC035F010C0F6
:1013C00036F0120014D002C0F6FF03C0F7FFF86A2F
:1013D000050EF76403D00800F55005D0F6CFD9FF0D
:1013E000F7CFDAFFDF502AEC0CF0024A032A02C0E2
:1013F000F6FF03C0F7FFF86A050EF76403D0080094
:10140000F55005D0F6CFD9FFF7CFDAFFDF5000094E
:10141000D8B41200D8D7000E066E000E056E035029
:101420000410D8B41CD0010E076E04D0D890033637
:101430000436072A04AEFAD7D8900536063603508C
:10144000015C04500258D8A005D00350015E04503E
:10145000025A0580D89004320332072EEDD705C01A
:1014600001F006C002F01200000E67EC0BF0076EF0
:1014700007508009056E000EC9EC0BF0020E67ECF8
:101480000BF0076E07504009056E020EC9EC0BF019
:10149000930E056E070EC9EC0BF0000E67EC0BF017
:1014A000076E07507F0B056E000EC9EC0BF01200A3
:1014B000076E0750530FD96EDA6ADF50066E06C00A
:1014C00003F00350D8A4060E046E820E056E84EC61
:1014D00009F00750540FD96EDA6ADF50066E06C065
:1014E00003F00350D8A4060E046EC20E056E84EC01
:1014F00009F012002E0EF66E180EF76E000EF86E42
:1015000000EE4AF010EE14F00900F5CFEEFFE550C2
:10151000E150FAE101EE00F0BE0EEE6AE806FDE1F0
:1015200000EE28F0220EEE6AE806FDE1000EF86EED
:101530000001A1EF08F003500410D8B418D0010E38
:10154000056E04D0D89003360436052A04AEFAD7C7
:101550000350015C04500258D8A004D00350015E2F
:101560000450025AD89004320332052EF1D701C03C
:1015700001F002C002F01200402A0C6A08500C244C
:10158000D96EDA6ADF50046E355035EC0BF0354A0F
:10159000362A0C2A070E0C64F1D709C004F0355026
:1015A00035EC0BF0354A362A0AC004F0355035ECDC
:1015B0000BF0354A362A1200B9EC0BF0066A010E20
:1015C000026E0250D8A4060E036EE2EC09F0E1ECC4
:1015D00005F00BD00650130D000EF324026E010E21
:1015E000F420036EE2EC09F0062A4050065CD8A015
:1015F000F1D73D6A1200076E07C003F0D89003369A
:10160000D8900336C250C30B0310C26EC282C2B25E
:10161000FED7C350C4CF03F0046A03C004F0036ACA
:101620000310056E0450066E05C001F006C002F0FE
:101630001200026E046A0150D8B415D0010E036E78
:1016400003D0D8900136032A01AEFBD7D8900436D8
:101650000150025CD8A003D00150025E0480D890F3
:101660000132032EF3D704501200076E49EC0CF040
:10167000A00E37EC0CF0075037EC0CF0045037ECB0
:101680000CF045EC0CF00B0E066EB80E056E050660
:10169000D8A006060528FBE10628D8B41200F7D723
:1016A000016E0104D8A411D0DEEC08F0396E39289F
:1016B000D8B406D05750D8B403D0576A3950120066
:1016C0003928D8A402D0010E576EFF0E1200026E08
:1016D00049EC0CF0D00E37EC0CF0025037EC0CF06B
:1016E0003DEC0CF0D10E37EC0CF031EC0CF0036E4D
:1016F00045EC0CF003501200026E49EC0CF0A00E09
:1017000037EC0CF0025037EC0CF03DEC0CF0A10E75
:1017100037EC0CF031EC0CF0036E45EC0CF00350A0
:101720001200026E080E036E046AD890023404346C
:10173000046ED89002360150045CD8A002D001504B
:10174000045E032EF2D704501200026E01A002D0F4
:10175000828201D0829202C083FF82848294958E1D
:10176000828082928284829483BEFCD78290959EEE
:101770001200948E949CAC9CAC8AAC98AC96AC84D1
:10178000AB8EAB9CAB88B896810EAF6E9E989E9A3E
:101790001200066E49EC0CF0D00E37EC0CF006503F
:1017A00037EC0CF0055037EC0CF045EC0CF0120067
:1017B000046A0450280FD96EDA6A3D507CEC0BF0B5
:1017C000DF6E3D2A042A090E0464F3D71200C08E8E
:1017D000C08AC098C096C090C082C094C292C19A7C
:1017E000C198C46AC36AC2801200096E000E016EFD
:1017F0000850A5EC0BF0010E016E0950A5EC0BF0A2
:10180000120021EC0CF04EEC08F00CEC0CF0E7ECC4
:101810000BF034EC0AF0120094869488280EC66E01
:10182000310EC86EC79CC78E9E96A1961200204EA0
:1018300031323334355200922D7589010101010195
:1018400001010F0EC16E1E0E936EF19E8150E009D4
:10185000816E1200016E9EA8FED79E9801C0ADFF5A
:10186000120041EC0CF051EC0CF0C9501200016E6A
:1018700001C0C9FF4DEC0CF01200C5824DEC0CF01C
:101880001200C5864DEC0CF01200C5844DEC0CF036
:101890001200C5804DEC0CF012009EA6FED79E965D
:0818A0001200C58AC588120080
:00000001FF
